:020000040000FA
:0400000010EF00F00D
:020004000000FA
:04000800DDEF04F034
:0400180001EF05F0FF
:100020006DEC00F07DEC00F0B5EC00F05CEC02F063
:10003000A4EC06F0CCEC06F0000ED0EC06F0530E6B
:1000400099EC06F06D0E99EC06F0610E99EC06F055
:10005000720E99EC06F0740E99EC06F0200E99ECF5
:1000600006F0480E99EC06F06F0E99EC06F06D0E56
:1000700099EC06F0650E99EC06F0400ED0EC06F017
:100080004C0E99EC06F03A0E99EC06F0460ED0ECC8
:1000900006F0490E99EC06F0520E99EC06F03A0E75
:1000A00099EC06F04B0ED0EC06F0530E99EC06F0EE
:1000B0003A0E99EC06F0356A286A4D0ED0EC06F03F
:1000C0004C0E99EC06F002EC01F0D1EC04F078EC67
:1000D00004F0D9EC04F022EF05F0896A030E926E69
:1000E0008A6AF30E936E8B6A800E946E8C6A000E91
:1000F000956E8D6A000E966E1200206A216A226A41
:10010000000E236E296A286A276A266A416A426AB3
:10011000436A446A456A466A476A486A3E6A3F6A71
:10012000406A4B6A4C6A4D6A4E6A010E4F6E640E0D
:100130005A6E020E5B6E5C6A5D6A646B656B6C6B1B
:100140006D6B6E6B6F6B706B716B736B766B776BCC
:10015000786B796B7F6B7E6B7A6B050E7B6F7C6B3C
:100160000A0E2D6E0A0E2E6E12000D0EC16E940E2A
:10017000C06E050EC26E1200050EC26E00000000B9
:10018000C282C2B2FED7C3CF3BF0C4CF3CF03BC06B
:100190003DF0D8903C303D323CC04AF03BC03DF091
:1001A000D8904A323D32D8904A323D323D50650DAA
:1001B000F4CF3DF0640E3D6401D03D6E3D506408C7
:1001C0003D6E00EE41F03E50E926EF503F5ED8A074
:1001D00040063DC0EFFF3D503F26D8B0402A3E2AA2
:1001E000070E3E163FC049F040C04AF0D8904A3250
:1001F0004932D8904A324932D8904A32493249C0BD
:1002000026F01200810ED56EF60ED76E3C0ED66E1D
:10021000F294F184F28A12004D500D0818E04D500E
:100220000A0815E04D50240805E1646B240E5E6E4B
:10023000642B120064530AE000EE5EF06451E9267C
:100240004D50EF6E642B080E6461646B12006453B2
:1002500002E140EF02F05E50240802E040EF02F0BD
:100260005F50440802E15AEF01F05F50410802E19B
:100270006AEF01F05F504D0802E175EF01F05F5049
:10028000460802E131EF02F05F50500802E189EFC9
:1002900001F05F504C0802E1F6EF01F05F505808A2
:1002A00002E10DEF02F05F50590802E111EF02F098
:1002B00040EF02F06051310805E0286A640E5A6E82
:1002C00040EF02F0010E286EC80E5A6E050E7A6FCE
:1002D00040EF02F06051410804E0296A5D6A40EF96
:1002E00002F0010E296E40EF02F06051480805E06F
:1002F0006051410808E040EF02F0000E236E296AC9
:100300005D6A40EF02F0010E236E010E296E40EF90
:1003100002F0CCEC06F0000ED0EC06F0410E99ECA9
:1003200006F0500E99EC06F0500E99EC06F0200EF7
:1003300099EC06F0500E99EC06F0490E99EC06F097
:100340004E0E99EC06F03A0E99EC06F0605199ECDD
:1003500006F0615199EC06F0625199EC06F0635198
:1003600099EC06F0030E776F6051D00F685D29E1BC
:100370006151D00F695D25E16251D00F6A5D21E1C5
:100380006351D00F6B5D1DE1010E286EC80E5A6ED1
:10039000050E7A6F000E236E296A5D6A766B8B906C
:1003A000716B240E86EC04F0500E86EC04F04F0EB8
:1003B00086EC04F04B0E86EC04F08AEC04F040EF7F
:1003C00002F0712B240E86EC04F0500E86EC04F043
:1003D0004E0E86EC04F04F0E86EC04F08AEC04F02E
:1003E000030E716121EC03F040EF02F06051D00F79
:1003F000640DF3CF7DF06151D00F0A0DF3507D27CE
:100400006251D00F7D27640E7D6501D07D6F010E96
:10041000786F7D51796F40EF02F0786B7E6B40EF23
:1004200002F06051410805E17F6B786B7E6B40EF15
:1004300002F060514D0809E1010E7F6F010E786FE7
:100440007E6F4C50796F40EF02F06051560807E123
:10045000020E7F6F010E786F7E6F4C50796F40EF08
:1004600002F06051310806E08B94276A010E7E6F1E
:1004700040EF02F08B84010E276E7E6F40EF02F09A
:10048000646B1200A96EA69EA69CA680A8501200BE
:100490006651A96E6751A86EA69EA69CA684F29E80
:1004A000F29C550EA76EAA0EA76EA682F28EF28C53
:1004B000A6B2FED7A6941200000E42EC02F0A508E8
:1004C0001EE0010E666F010E676F48EC02F0020E2F
:1004D000666F020E676F48EC02F0030E666F030E44
:1004E000676F48EC02F0040E666F040E676F48EC0D
:1004F00002F0000E666FA50E676F48EC02F0010E69
:1005000042EC02F0686F020E42EC02F0696F030EDB
:1005100042EC02F06A6F040E42EC02F06B6F1200C4
:10052000726B81A8728181AA728381AC728581AE5F
:100530007287731D7215746F72C073F0756B74B12E
:1005400007D074B308D074B509D074B70AD01200BC
:10055000010E756F1200020E756F1200030E756F9B
:100560001200040E756F120075516AE0775302E1B4
:10057000CCEC06F0080E776F755101080BE0755151
:10058000020814E07551030822E07551040816E0D2
:1005900020EF03F000EE6CF07051E926EF2A0A0E0E
:1005A000EF60EF6A65EC03F020EF03F0702B040EB0
:1005B0007061700765EC03F020EF03F06C6B6D6BFE
:1005C0006E6B6F6B706B65EC03F020EF03F06C519A
:1005D000685D23E16D51695D20E16E516A5D1DE149
:1005E0006F516B5D1AE1010E286EC80E5A6E050E32
:1005F0007A6F000E236E296A5D6A766B8B90716B41
:10060000D8EC06F0CFEC03F06C6B6D6B6E6B6F6B20
:10061000706B020E776F20EF03F0712B8B80640EEE
:10062000766FD8EC06F003EC04F0020E776F6C6B7B
:100630006D6B6E6B6F6B706B030E716121EC03F071
:100640001200010E236E010E296E010E5D6E286AE6
:10065000640E5A6E716B210E86EC04F0490E86EC26
:1006600004F04E0E86EC04F0540E86EC04F0520EAC
:1006700086EC04F0550E86EC04F0440E86EC04F093
:10068000450E86EC04F08AEC04F01200400ED0EC2B
:1006900006F04C0E99EC06F03A0E99EC06F0460E78
:1006A000D0EC06F0490E99EC06F0520E99EC06F0EB
:1006B0003A0E99EC06F04B0ED0EC06F0530E99EC86
:1006C00006F03A0E99EC06F01200000ED0EC06F09F
:1006D000450E99EC06F06E0E99EC06F0740E99EC4E
:1006E00006F0650E99EC06F0720E99EC06F0200EFD
:1006F00099EC06F0500E99EC06F0490E99EC06F0D4
:100700004E0E99EC06F03A0E99EC06F0200E99EC9C
:1007100006F0200E99EC06F0200E99EC06F0200E63
:1007200099EC06F0200E99EC06F0200E99EC06F0FC
:10073000400ED0EC06F0200E99EC06F0200E99EC5D
:1007400006F0200E99EC06F0200E99EC06F06C51A4
:10075000300F99EC06F0200E99EC06F06D51300F39
:1007600099EC06F0200E99EC06F06E51300F99ECE2
:1007700006F0200E99EC06F06F51300F99EC06F060
:10078000200E99EC06F0200E99EC06F07051020D47
:10079000F350440FD0EC06F0D4EC06F01200000E3B
:1007A000D0EC06F0410E99EC06F0430E99EC06F001
:1007B000430E99EC06F0450E99EC06F0530E99ECB9
:1007C00006F0530E99EC06F0200E99EC06F04F0E51
:1007D00099EC06F04B0E99EC06F0200E99EC06F021
:1007E000200E99EC06F0200E99EC06F0200E99EC04
:1007F00006F0200E99EC06F0200E99EC06F0200E83
:1008000099EC06F01200000ED0EC06F0570E99ECB1
:1008100006F0520E99EC06F04F0E99EC06F04E0ED3
:1008200099EC06F0470E99EC06F0200E99EC06F0D4
:10083000500E99EC06F0490E99EC06F04E0E99EC2C
:1008400006F0200E99EC06F0200E99EC06F0200E32
:1008500099EC06F0200E99EC06F0200E99EC06F0CB
:10086000200E99EC06F0200E99EC06F012007A5357
:1008700005E07A0703E1286A640E5A6E7F5325E18A
:10088000235002E04DEF04F0296A5D6A766B8B908D
:1008900066EC04F0786B65EF04F0010E296E8B9422
:1008A000276A7B2F5AEF04F02050070B040F7B6F51
:1008B000010E7C1B010E786F7C5304E0500E796FA3
:1008C00065EF04F0796B65EF04F012007E530FE1E1
:1008D00024501F0805E324501E0807E277EF04F0B8
:1008E0008B84010E276E77EF04F08B94276A120039
:1008F000948E948C190EAF6E240EAC6E900EAB6E6F
:100900009E9AAB92AB889F9A9D8A1200ACA2FED7AA
:10091000AD6E12000D0E86EC04F00A0E86EC04F0AB
:1009200012003A6E336A346A640E3A6001D004D021
:10093000640E3A5E332AF8D70A0E3A6001D004D02A
:100940000A0E3A5E342AF8D733520DE03350300F96
:1009500086EC04F03450300F86EC04F03A50300F3F
:1009600086EC04F01200345204E03450300F86EC70
:1009700004F03A50300F86EC04F012003550070BAB
:10098000180F246E370E256E010E4E6E12001E0ECD
:10099000536EC80E546E0000542EFDD7532EF9D757
:1009A0001200CA6A630ECB6E9E929F929D82CA8489
:1009B0001200D08EF28EF28C1200F2A421D0F294AA
:1009C000F60ED76E3C0ED66E202A2D2E19D00A0EAA
:1009D0002D6E22822E2E03D00A0E2E6E22845B2EC6
:1009E0000FD0020E5B6E5A505C6E8B8200000000CE
:1009F000000000000000000000005C2EF7D78B9282
:100A000011002A6ED8CF2BF0E0CF2CF09EAA07D091
:100A1000ABB2AB98ABB2AB88AE504D6E22869EA205
:100A20000BD09E924B2A640E4B604B6A4C504B602D
:100A300002D0898801D089982CC0E0FF2A502BC0B1
:100A4000D8FF100022A62BEF05F022964D5086EC21
:100A500004F00CEC01F022A02FEF05F0229022A26E
:100A6000BBEF05F02292BCEC00F0775323E1420E7D
:100A7000D0EC06F0200E99EC06F0200E99EC06F072
:100A8000200E99EC06F0420ED0EC06F02650DCEC7D
:100A900006F0490ED0EC06F04E0E81B2590E99ECDC
:100AA00006F04D0ED0EC06F04C0E285201E0550E2B
:100AB00099EC06F081A264EF05F0080E656167EF1E
:100AC00005F0652B67EF05F0655301E065072952D6
:100AD00003E1656B93EF05F0040E656172EF05F0BD
:100AE00093EF05F05D521FE1010E5D6E286A640E02
:100AF0005A6E210E86EC04F0490E86EC04F04E0E80
:100B000086EC04F0540E86EC04F0520E86EC04F0F1
:100B1000550E86EC04F0440E86EC04F0450E86EC8F
:100B200004F08AEC04F05D5203E08B709FEF05F057
:100B3000765304E076078B809FEF05F08B9090EC66
:100B400002F0B4EC02F0785304E079514C6EBBEF44
:100B500005F04B0E2660BAEF05F026504B08D890F2
:100B6000E844E8444C6E640E4C64BBEF05F04C6EF8
:100B7000BBEF05F04C6A22A456EF06F022948D706C
:100B8000352A37EC04F077530EE077070CE16C6BF5
:100B90006D6B6E6B6F6B706BD8EC06F0CCEC06F087
:100BA00046EC03F04E6A4F2EDAEF05F0020E4F6E60
:100BB000BEEC04F0775334E14E5232E0000ED0EC3C
:100BC00006F0540E99EC06F03A0E99EC06F024501B
:100BD000DCEC06F0430E99EC06F0200E99EC06F0E2
:100BE000480E99EC06F03A0E99EC06F02550DCEC34
:100BF00006F0250E99EC06F0200E99EC06F00D0E8D
:100C0000D0EC06F05B0E99EC06F0235003E0410EA9
:100C10000BEF06F0480E99EC06F05D0E99EC06F02D
:100C2000240E86EC04F0530E86EC04F02C0E86ECB9
:100C300004F0265091EC04F02C0E86EC04F02450C5
:100C400091EC04F02C0E86EC04F0255091EC04F0AD
:100C50002C0E86EC04F0235091EC04F02C0E86EC64
:100C600004F0285091EC04F02C0E86EC04F0275090
:100C700091EC04F02C0E86EC04F0000E81B2010E13
:100C800091EC04F02C0E86EC04F04C5091EC04F046
:100C90002C0E86EC04F07F5191EC04F02C0E86ECC7
:100CA00004F0295091EC04F08AEC04F0CBD6326EBB
:100CB0000A0E326005D03250300F99EC06F0120067
:100CC0003250370F99EC06F01200110E366E362EA8
:100CD000FED71200040E376EFA0E386E0000382E62
:100CE000FDD7372EF9D712000A0E396E6AEC06F0DE
:100CF000392EFCD712008C8A000000008C9A12005A
:100D00000F0B2F6E8C50F00B2F108C6E7BEC06F0BF
:100D10001200326E8C98323880EC06F0325080EC43
:100D200006F065EC06F0120089EC06F06AEC06F0BD
:100D30001200326E8C88323880EC06F0325080EC33
:100D400006F065EC06F012008C988C9A74EC06F0B4
:100D5000030E80EC06F06AEC06F0030E80EC06F061
:100D60006AEC06F0030E80EC06F065EC06F0020E6D
:100D700080EC06F065EC06F0280E89EC06F0080E13
:100D800089EC06F0010E94EC06F0060E89EC06F0F4
:100D90000C0E89EC06F01200010E94EC06F0120025
:100DA000800989EC06F012000F0E89EC06F01200A3
:100DB0000C0E89EC06F012003A6E336A346A640E47
:100DC0003A6001D004D0640E3A5E332AF8D70A0E96
:100DD0003A6001D004D00A0E3A5E342AF8D7335272
:100DE0000DE03350300F99EC06F03450300F99EC91
:100DF00006F03A50300F99EC06F01200345204E03D
:100E00003450300F99EC06F03A50300F99EC06F060
:020E10001200CE
:020000040030CA
:0100000000FF
:0100010000FE
:0100020018E5
:010003001EDE
:010005008179
:010006008178
:010008000FE8
:01000900C036
:01000A000FE6
:01000B00E014
:01000C000FE4
:01000D0040B2
:00000001FF
