:020000040000FA
:0400000010EF00F00D
:020004000000FA
:04000800B1EF05F05F
:04001800D5EF05F02B
:100020006FEC00F07FEC00F0BBEC00F082EC02F033
:10003000E6EC02F0DDEC07F005EC08F0000E09EC50
:1000400008F0530ED2EC07F06D0ED2EC07F0610E03
:10005000D2EC07F0720ED2EC07F0740ED2EC07F07F
:10006000200ED2EC07F0480ED2EC07F06F0ED2EC67
:1000700007F06D0ED2EC07F0650ED2EC07F0400EE3
:1000800009EC08F04C0ED2EC07F03A0ED2EC07F077
:10009000460E09EC08F0490ED2EC07F0520ED2ECF5
:1000A00007F03A0ED2EC07F04B0E09EC08F0530EB5
:1000B000D2EC07F03A0ED2EC07F0356A286A4D0E02
:1000C00009EC08F04C0ED2EC07F008EC01F0A5ECBE
:1000D00005F0E9EC04F0ADEC05F0F6EF05F0896A07
:1000E000030E926E8A6AF30E936E8B6A800E946E84
:1000F0008C6A000E956E8D6A000E966E1200206A54
:10010000216A226A000E236E296A286A276A266AF3
:10011000416A426A436A446A456A466A476A486A6B
:100120003E6A3F6A406A4B6A4C6A4D6A4E6A010EEB
:100130004F6EC80E5A6E020E5B6E5C6A5D6A646B2F
:10014000656B6C6B6D6B6E6B6F6B706B716B736BE8
:10015000766B776B786B796B7F6B7E6B7A6B050E4A
:100160007B6F7C6B806B816B826B836B0A0E2D6E59
:100170000A0E2E6E12000D0EC16E940EC06E050E8C
:10018000C26E1200050EC26E00000000C282C2B232
:10019000FED7C3CF3BF0C4CF3CF03BC03DF0D8907E
:1001A0003C303D323CC04AF03BC03DF0D8904A3232
:1001B0003D32D8904A323D323D50650DF4CF3DF08E
:1001C000640E3D6401D03D6E3D5064083D6E00EE0E
:1001D00041F03E50E926EF503F5ED8A040063DC0BA
:1001E000EFFF3D503F26D8B0402A3E2A070E3E166C
:1001F0003FC049F040C04AF0D8904A324932D890C6
:100200004A324932D8904A32493249C026F0120067
:10021000810ED56EF60ED76E3C0ED66EF294F1843A
:10022000F28A12004D500D0818E04D500A0815E0F2
:100230004D50240805E1646B240E5E6E642B1200A1
:1002400064530AE000EE5EF06451E9264D50EF6E13
:10025000642B080E6461646B1200645302E166EF64
:1002600002F05E50240802E066EF02F05F5044089E
:1002700002E165EF01F05F50410802E175EF01F026
:100280005F504D0802E18BEF01F05F50460802E13C
:1002900053EF02F05F50500802E1A5EF01F05F500C
:1002A0004C0802E118EF02F05F50580802E12FEF0E
:1002B00002F05F50590802E133EF02F05F5052083C
:1002C00002E162EF02F066EF02F06051310805E0F2
:1002D000286AC80E5A6E66EF02F0010E286E640E90
:1002E0005A6E050E7A6F66EF02F0605141080CE01D
:1002F0006051440802E066EF02F0296A5D6A060E6A
:10030000B6EC02F066EF02F0010E296E050EB6ECB7
:1003100002F066EF02F06051480805E060514108C4
:100320000BE066EF02F0000E236E296A5D6A070E8D
:10033000B6EC02F066EF02F0010E236E010E296E9C
:10034000080EB6EC02F066EF02F005EC08F0000EC5
:1003500009EC08F0410ED2EC07F0500ED2EC07F099
:10036000500ED2EC07F0200ED2EC07F0500ED2EC7B
:1003700007F0490ED2EC07F04E0ED2EC07F03A0E21
:10038000D2EC07F06051D2EC07F06151D2EC07F0EB
:100390006251D2EC07F06351D2EC07F0030E776F95
:1003A0006051D00F685D2CE16151D00F695D28E18B
:1003B0006251D00F6A5D24E16351D00F6B5D20E183
:1003C000010E286E640E5A6E050E7A6F000E236EB3
:1003D000296A5D6A766B8B90716B020EB6EC02F047
:1003E000240EF7EC04F0500EF7EC04F04F0EF7EC8F
:1003F00004F04B0EF7EC04F0FBEC04F066EF02F0B7
:10040000712B030EB6EC02F0240EF7EC04F0500E44
:10041000F7EC04F04E0EF7EC04F04F0EF7EC04F09E
:10042000FBEC04F0030E716188EC03F066EF02F060
:100430006051D00F640DF3CF7DF06151D00F0A0DE4
:10044000F3507D276251D00F7D27640E7D6501D06A
:100450007D6F010E786F7D51796F66EF02F0786BDA
:100460007E6B66EF02F06051410805E17F6B786BAF
:100470007E6B66EF02F060514D0809E1010E7F6F5F
:10048000010E786F7E6F4C50796F66EF02F060510D
:10049000560807E1020E7F6F010E786F7E6F4C5099
:1004A000796F66EF02F06051310806E08B94276A9D
:1004B000010E7E6F66EF02F08B84010E276E7E6F59
:1004C00066EF02F0C9EC02F066EF02F0646B120016
:1004D000A96EA69EA69CA680A85012006651A96E81
:1004E0006751A86EA69EA69CA684F29EF29C550E0D
:1004F000A76EAA0EA76EA682F28EF28CA6B2FED7C7
:10050000A6941200000E68EC02F0A5081EE0010E91
:10051000666F010E676F6EEC02F0020E666F020EE0
:10052000676F6EEC02F0030E666F030E676F6EEC82
:1005300002F0040E666F040E676F6EEC02F0000EA0
:10054000666FA50E676F6EEC02F0010E68EC02F0AC
:10055000686F020E68EC02F0696F030E68EC02F03F
:100560006A6F040E68EC02F06B6F1200846F8351A7
:10057000100F666F8451676F6EEC02F0832B080ECC
:100580008361836B180E666F8351676F6EEC02F0A8
:100590001200240EF7EC04F0520EF7EC04F02C0ECF
:1005A000F7EC04F0835102EC05F0100E666F2C0E90
:1005B000F7EC04F0665168EC02F002EC05F0662BF3
:1005C000180E6663F4D7FBEC04F01200180E68EC0A
:1005D00002F0836F080E8361836B010EB6EC02F0AC
:1005E0001200726B81A8728181AA728381AC7285BC
:1005F00081AE7287731D7215746F72C073F0756B64
:1006000074B107D074B308D074B509D074B70AD0E8
:100610001200010E756F1200020E756F1200030EAC
:10062000756F1200040E756F1200755170E07753EC
:1006300002E105EC08F0080E776F755101080BE038
:100640007551020814E07551030822E07551040841
:1006500016E087EF03F000EE6CF07051E926EF2A08
:100660000A0EEF60EF6ACFEC03F087EF03F0702B18
:10067000040E70617007CFEC03F087EF03F06C6B32
:100680006D6B6E6B6F6B706BCFEC03F087EF03F0ED
:100690006C51685D26E16D51695D23E16E516A5DC3
:1006A00020E16F516B5D1DE1010E286E640E5A6EE4
:1006B000050E7A6F000E236E296A5D6A766B8B9049
:1006C000716B11EC08F039EC04F0020EB6EC02F09C
:1006D0006C6B6D6B6E6B6F6B706B020E776F87EF71
:1006E00003F0712B8B80640E766F030EB6EC02F074
:1006F00011EC08F06DEC04F0020E776F6C6B6D6B13
:100700006E6B6F6B706B030E716188EC03F01200FF
:10071000010E236E010E296E010E5D6E286AC80E51
:100720005A6E716B040EB6EC02F0210EF7EC04F079
:10073000490EF7EC04F04E0EF7EC04F0540EF7EC13
:1007400004F0520EF7EC04F0550EF7EC04F0440EF2
:10075000F7EC04F0450EF7EC04F0FBEC04F01200AB
:10076000400E09EC08F04C0ED2EC07F03A0ED2EC39
:1007700007F0460E09EC08F0490ED2EC07F0520ED5
:10078000D2EC07F03A0ED2EC07F04B0E09EC08F071
:10079000530ED2EC07F03A0ED2EC07F01200000E26
:1007A00009EC08F0450ED2EC07F06E0ED2EC07F023
:1007B000740ED2EC07F0650ED2EC07F0720ED2EC9C
:1007C00007F0200ED2EC07F0500ED2EC07F0490EE5
:1007D000D2EC07F04E0ED2EC07F03A0ED2EC07F056
:1007E000200ED2EC07F0200ED2EC07F0200ED2EC57
:1007F00007F0200ED2EC07F0200ED2EC07F0200E0E
:10080000D2EC07F0400E09EC08F0200ED2EC07F015
:10081000200ED2EC07F0200ED2EC07F0200ED2EC26
:1008200007F06C51300FD2EC07F0200ED2EC07F03D
:100830006D51300FD2EC07F0200ED2EC07F06E5164
:10084000300FD2EC07F0200ED2EC07F06F51300FD2
:10085000D2EC07F0200ED2EC07F0200ED2EC07F01D
:100860007051020DF350440F09EC08F00DEC08F044
:100870001200000E09EC08F0410ED2EC07F0430E16
:10088000D2EC07F0430ED2EC07F0450ED2EC07F0A5
:10089000530ED2EC07F0530ED2EC07F0200ED2EC40
:1008A00007F04F0ED2EC07F04B0ED2EC07F0200E03
:1008B000D2EC07F0200ED2EC07F0200ED2EC07F0BD
:1008C000200ED2EC07F0200ED2EC07F0200ED2EC76
:1008D00007F0200ED2EC07F01200000E09EC08F031
:1008E000570ED2EC07F0520ED2EC07F04F0ED2ECBE
:1008F00007F04E0ED2EC07F0470ED2EC07F0200EB8
:10090000D2EC07F0500ED2EC07F0490ED2EC07F013
:100910004E0ED2EC07F0200ED2EC07F0200ED2ECF7
:1009200007F0200ED2EC07F0200ED2EC07F0200EDC
:10093000D2EC07F0200ED2EC07F0200ED2EC07F03C
:1009400012007A5305E07A0703E1286AC80E5A6E4E
:100950007F5325E1235002E0B7EF04F0296A5D6A76
:10096000766B8B90D0EC04F0786BCFEF04F0010E37
:10097000296E8B94276A7B2FC4EF04F02050070B5D
:10098000040F7B6F010E7C1B010E786F7C5304E01B
:10099000500E796FCFEF04F0796BCFEF04F01200B7
:1009A0007E5316E124501F080DE324501B0803E278
:1009B0002550450807E324501E080AE32550410846
:1009C00007E304D08B84010E276E02D08B94276A34
:1009D0001200948E948C190EAF6E240EAC6E900E95
:1009E000AB6E9E9AAB92AB889F9A9D8A1200ACA286
:1009F000FED7AD6E12000D0EF7EC04F00A0EF7EC08
:100A000004F012003A6E336A346A640E3A6001D020
:100A100004D0640E3A5E332AF8D70A0E3A6001D049
:100A200004D00A0E3A5E342AF8D733520DE0335020
:100A3000300FF7EC04F03450300FF7EC04F03A507C
:100A4000300FF7EC04F01200345204E03450300F51
:100A5000F7EC04F03A50300FF7EC04F012004E6A55
:100A600093908A90F29EF29C9BEC05F09380640E2A
:100A7000506E502E01D05CD081B0FBD7640E506E0A
:100A8000502E01D055D081A0FBD7640E506E502E51
:100A900001D04ED081B0FBD700EE55F0050E516E5F
:100AA000EF6A080E526E640E506E502E01D040D088
:100AB00081A0FBD700000000000000000000000043
:100AC0000000000000000000000000000000000026
:100AD0000000000000000000000000000000000016
:100AE0000000000000000000000000000000000006
:100AF000000000000000000000000000EF4681B090
:100B0000EF80640E506E81A002D0502EFCD7522E82
:100B1000CAD7EE50512EC4D75550562457245824C6
:100B2000595C06E155C025F057C024F0010E4E6E09
:100B3000F28EF28C12001E0E536EC80E546E000020
:100B4000542EFDD7532EF9D71200CA6A630ECB6E0E
:100B50009E929F929D82CA841200D08EF28EF28C59
:100B60001200F2A421D0F294F60ED76E3C0ED66E8F
:100B7000202A2D2E19D00A0E2D6E22822E2E03D061
:100B80000A0E2E6E22845B2E0FD0020E5B6E5A5020
:100B90005C6E8B820000000000000000000000007E
:100BA00000005C2EF7D78B9211002A6ED8CF2BF065
:100BB000E0CF2CF09EAA07D0ABB2AB98ABB2AB881B
:100BC000AE504D6E22869EA20BD09E924B2A640E92
:100BD0004B604B6A4C504B6002D0898801D0899899
:100BE0002CC0E0FF2A502BC0D8FF100022A6FFEF38
:100BF00005F022964D50F7EC04F012EC01F022A023
:100C000003EF06F0229022A2A0EF06F02292C2EC9F
:100C100000F0775323E1420E09EC08F0200ED2ECED
:100C200007F0200ED2EC07F0200ED2EC07F0420EB7
:100C300009EC08F0265015EC08F0490E09EC08F014
:100C40004E0E81B2590ED2EC07F04D0E09EC08F0B1
:100C50004C0E285201E0550ED2EC07F081A238EF7D
:100C600006F0080E65613BEF06F0652B3BEF06F0E2
:100C7000655301E06507235206E17F5304E181A239
:100C800002D01E0E806F295203E1656B72EF06F0F1
:100C9000040E65614EEF06F072EF06F05D5222E140
:100CA000010E5D6E286AC80E5A6E040EB6EC02F094
:100CB000210EF7EC04F0490EF7EC04F04E0EF7ECC1
:100CC00004F0540EF7EC04F0520EF7EC04F0550E5D
:100CD000F7EC04F0440EF7EC04F0450EF7EC04F0EA
:100CE000FBEC04F05D5203E08B707EEF06F0765370
:100CF00004E076078B807EEF06F08B90F1EC02F03B
:100D000015EC03F0785304E079514C6EA0EF06F037
:100D10004B0E266099EF06F026504B08D890E84419
:100D2000E8444C6E640E4C649AEF06F04C6E9AEFF9
:100D300006F04C6A805304E0500E4C644C6E800701
:100D400022A48FEF07F022948D70352AA1EC04F0D5
:100D500077530EE077070CE16C6B6D6B6E6B6F6B0E
:100D6000706B11EC08F005EC08F0B0EC03F04E6A83
:100D70004F2EBFEF06F0020E4F6E2FEC05F04E52D5
:100D800052E0815323E1270E246424D0010E816FA9
:100D9000090EB6EC02F0210EF7EC04F0480EF7EC69
:100DA00004F04F0EF7EC04F0540EF7EC04F0410E93
:100DB000F7EC04F04C0EF7EC04F0520EF7EC04F0F4
:100DC000540EF7EC04F0FBEC04F004D0260E246083
:100DD00001D0816B825323E1590E256424D0010E8A
:100DE000826F0A0EB6EC02F0210EF7EC04F0480E0A
:100DF000F7EC04F0550EF7EC04F04D0EF7EC04F0B0
:100E0000410EF7EC04F04C0EF7EC04F0520EF7EC48
:100E100004F0540EF7EC04F0FBEC04F004D0550E93
:100E2000256001D0826B775334E14E5232E0000EE0
:100E300009EC08F0540ED2EC07F03A0ED2EC07F0B1
:100E4000245015EC08F0430ED2EC07F0200ED2EC43
:100E500007F0480ED2EC07F03A0ED2EC07F025501E
:100E600015EC08F0250ED2EC07F0200ED2EC07F0BE
:100E70000D0E09EC08F05B0ED2EC07F0235003E0F6
:100E8000410E44EF07F0480ED2EC07F05D0ED2ECB5
:100E900007F0240EF7EC04F0530EF7EC04F02C0EE0
:100EA000F7EC04F0265002EC05F02C0EF7EC04F001
:100EB000245002EC05F02C0EF7EC04F0255002EC67
:100EC00005F02C0EF7EC04F0235002EC05F02C0E8C
:100ED000F7EC04F0285002EC05F02C0EF7EC04F0CF
:100EE000275002EC05F02C0EF7EC04F0000E81B256
:100EF000010E02EC05F02C0EF7EC04F04C5002EC65
:100F000005F02C0EF7EC04F07F5102EC05F02C0EEE
:100F1000F7EC04F0295002EC05F0FBEC04F066D687
:100F2000326E0A0E326005D03250300FD2EC07F02C
:100F300012003250370FD2EC07F01200110E366E4D
:100F4000362EFED71200040E376EFA0E386E0000F1
:100F5000382EFDD7372EF9D712000A0E396EA3ECC2
:100F600007F0392EFCD712008C8A000000008C9A02
:100F700012000F0B2F6E8C50F00B2F108C6EB4ECF8
:100F800007F01200326E8C983238B9EC07F032500C
:100F9000B9EC07F09EEC07F01200C2EC07F0A3ECEE
:100FA00007F01200326E8C883238B9EC07F03250FC
:100FB000B9EC07F09EEC07F012008C988C9AADEC1F
:100FC00007F0030EB9EC07F0A3EC07F0030EB9EC41
:100FD00007F0A3EC07F0030EB9EC07F09EEC07F066
:100FE000020EB9EC07F09EEC07F0280EC2EC07F0F9
:100FF000080EC2EC07F0010ECDEC07F0060EC2ECB5
:1010000007F00C0EC2EC07F01200010ECDEC07F059
:1010100012008009C2EC07F012000F0EC2EC07F0BC
:1010200012000C0EC2EC07F012003A6E336A346AFA
:10103000640E3A6001D004D0640E3A5E332AF8D7C9
:101040000A0E3A6001D004D00A0E3A5E342AF8D76C
:1010500033520DE03350300FD2EC07F03450300FE4
:10106000D2EC07F03A50300FD2EC07F012003452B5
:1010700004E03450300FD2EC07F03A50300FD2EC8D
:0410800007F0120063
:020000040030CA
:0100000000FF
:0100010000FE
:010002001EDF
:010003001EDE
:010005008179
:010006008178
:010008000FE8
:01000900C036
:01000A000FE6
:01000B00E014
:01000C000FE4
:01000D0040B2
:00000001FF
